{
  "_format": "hh-sol-artifact-1",
  "contractName": "ERC721",
  "sourceName": "@openzeppelin/contracts/token/ERC721/ERC721.sol",
  "abi": [
    {
      "inputs": [
        {
          "internalType": "string",
          "name": "name_",
          "type": "string"
        },
        {
          "internalType": "string",
          "name": "symbol_",
          "type": "string"
        }
      ],
      "stateMutability": "nonpayable",
      "type": "constructor"
    },
    {
      "anonymous": false,
      "inputs": [
        {
          "indexed": true,
          "internalType": "address",
          "name": "owner",
          "type": "address"
        },
        {
          "indexed": true,
          "internalType": "address",
          "name": "approved",
          "type": "address"
        },
        {
          "indexed": true,
          "internalType": "uint256",
          "name": "tokenId",
          "type": "uint256"
        }
      ],
      "name": "Approval",
      "type": "event"
    },
    {
      "anonymous": false,
      "inputs": [
        {
          "indexed": true,
          "internalType": "address",
          "name": "owner",
          "type": "address"
        },
        {
          "indexed": true,
          "internalType": "address",
          "name": "operator",
          "type": "address"
        },
        {
          "indexed": false,
          "internalType": "bool",
          "name": "approved",
          "type": "bool"
        }
      ],
      "name": "ApprovalForAll",
      "type": "event"
    },
    {
      "anonymous": false,
      "inputs": [
        {
          "indexed": true,
          "internalType": "address",
          "name": "from",
          "type": "address"
        },
        {
          "indexed": true,
          "internalType": "address",
          "name": "to",
          "type": "address"
        },
        {
          "indexed": true,
          "internalType": "uint256",
          "name": "tokenId",
          "type": "uint256"
        }
      ],
      "name": "Transfer",
      "type": "event"
    },
    {
      "inputs": [
        {
          "internalType": "address",
          "name": "to",
          "type": "address"
        },
        {
          "internalType": "uint256",
          "name": "tokenId",
          "type": "uint256"
        }
      ],
      "name": "approve",
      "outputs": [],
      "stateMutability": "nonpayable",
      "type": "function"
    },
    {
      "inputs": [
        {
          "internalType": "address",
          "name": "owner",
          "type": "address"
        }
      ],
      "name": "balanceOf",
      "outputs": [
        {
          "internalType": "uint256",
          "name": "",
          "type": "uint256"
        }
      ],
      "stateMutability": "view",
      "type": "function"
    },
    {
      "inputs": [
        {
          "internalType": "uint256",
          "name": "tokenId",
          "type": "uint256"
        }
      ],
      "name": "getApproved",
      "outputs": [
        {
          "internalType": "address",
          "name": "",
          "type": "address"
        }
      ],
      "stateMutability": "view",
      "type": "function"
    },
    {
      "inputs": [
        {
          "internalType": "address",
          "name": "owner",
          "type": "address"
        },
        {
          "internalType": "address",
          "name": "operator",
          "type": "address"
        }
      ],
      "name": "isApprovedForAll",
      "outputs": [
        {
          "internalType": "bool",
          "name": "",
          "type": "bool"
        }
      ],
      "stateMutability": "view",
      "type": "function"
    },
    {
      "inputs": [],
      "name": "name",
      "outputs": [
        {
          "internalType": "string",
          "name": "",
          "type": "string"
        }
      ],
      "stateMutability": "view",
      "type": "function"
    },
    {
      "inputs": [
        {
          "internalType": "uint256",
          "name": "tokenId",
          "type": "uint256"
        }
      ],
      "name": "ownerOf",
      "outputs": [
        {
          "internalType": "address",
          "name": "",
          "type": "address"
        }
      ],
      "stateMutability": "view",
      "type": "function"
    },
    {
      "inputs": [
        {
          "internalType": "address",
          "name": "from",
          "type": "address"
        },
        {
          "internalType": "address",
          "name": "to",
          "type": "address"
        },
        {
          "internalType": "uint256",
          "name": "tokenId",
          "type": "uint256"
        }
      ],
      "name": "safeTransferFrom",
      "outputs": [],
      "stateMutability": "nonpayable",
      "type": "function"
    },
    {
      "inputs": [
        {
          "internalType": "address",
          "name": "from",
          "type": "address"
        },
        {
          "internalType": "address",
          "name": "to",
          "type": "address"
        },
        {
          "internalType": "uint256",
          "name": "tokenId",
          "type": "uint256"
        },
        {
          "internalType": "bytes",
          "name": "data",
          "type": "bytes"
        }
      ],
      "name": "safeTransferFrom",
      "outputs": [],
      "stateMutability": "nonpayable",
      "type": "function"
    },
    {
      "inputs": [
        {
          "internalType": "address",
          "name": "operator",
          "type": "address"
        },
        {
          "internalType": "bool",
          "name": "approved",
          "type": "bool"
        }
      ],
      "name": "setApprovalForAll",
      "outputs": [],
      "stateMutability": "nonpayable",
      "type": "function"
    },
    {
      "inputs": [
        {
          "internalType": "bytes4",
          "name": "interfaceId",
          "type": "bytes4"
        }
      ],
      "name": "supportsInterface",
      "outputs": [
        {
          "internalType": "bool",
          "name": "",
          "type": "bool"
        }
      ],
      "stateMutability": "view",
      "type": "function"
    },
    {
      "inputs": [],
      "name": "symbol",
      "outputs": [
        {
          "internalType": "string",
          "name": "",
          "type": "string"
        }
      ],
      "stateMutability": "view",
      "type": "function"
    },
    {
      "inputs": [
        {
          "internalType": "uint256",
          "name": "tokenId",
          "type": "uint256"
        }
      ],
      "name": "tokenURI",
      "outputs": [
        {
          "internalType": "string",
          "name": "",
          "type": "string"
        }
      ],
      "stateMutability": "view",
      "type": "function"
    },
    {
      "inputs": [
        {
          "internalType": "address",
          "name": "from",
          "type": "address"
        },
        {
          "internalType": "address",
          "name": "to",
          "type": "address"
        },
        {
          "internalType": "uint256",
          "name": "tokenId",
          "type": "uint256"
        }
      ],
      "name": "transferFrom",
      "outputs": [],
      "stateMutability": "nonpayable",
      "type": "function"
    }
  ],
  "bytecode": "0x60806040523480156200001157600080fd5b50604051620025013803806200250183398181016040528101906200003791906200019f565b81600090805190602001906200004f92919062000071565b5080600190805190602001906200006892919062000071565b505050620003a8565b8280546200007f90620002b9565b90600052602060002090601f016020900481019282620000a35760008555620000ef565b82601f10620000be57805160ff1916838001178555620000ef565b82800160010185558215620000ef579182015b82811115620000ee578251825591602001919060010190620000d1565b5b509050620000fe919062000102565b5090565b5b808211156200011d57600081600090555060010162000103565b5090565b60006200013862000132846200024d565b62000224565b90508281526020810184848401111562000157576200015662000388565b5b6200016484828562000283565b509392505050565b600082601f83011262000184576200018362000383565b5b81516200019684826020860162000121565b91505092915050565b60008060408385031215620001b957620001b862000392565b5b600083015167ffffffffffffffff811115620001da57620001d96200038d565b5b620001e8858286016200016c565b925050602083015167ffffffffffffffff8111156200020c576200020b6200038d565b5b6200021a858286016200016c565b9150509250929050565b60006200023062000243565b90506200023e8282620002ef565b919050565b6000604051905090565b600067ffffffffffffffff8211156200026b576200026a62000354565b5b620002768262000397565b9050602081019050919050565b60005b83811015620002a357808201518184015260208101905062000286565b83811115620002b3576000848401525b50505050565b60006002820490506001821680620002d257607f821691505b60208210811415620002e957620002e862000325565b5b50919050565b620002fa8262000397565b810181811067ffffffffffffffff821117156200031c576200031b62000354565b5b80604052505050565b7f4e487b7100000000000000000000000000000000000000000000000000000000600052602260045260246000fd5b7f4e487b7100000000000000000000000000000000000000000000000000000000600052604160045260246000fd5b600080fd5b600080fd5b600080fd5b600080fd5b6000601f19601f8301169050919050565b61214980620003b86000396000f3fe608060405234801561001057600080fd5b50600436106100cf5760003560e01c80636352211e1161008c578063a22cb46511610066578063a22cb46514610224578063b88d4fde14610240578063c87b56dd1461025c578063e985e9c51461028c576100cf565b80636352211e146101a657806370a08231146101d657806395d89b4114610206576100cf565b806301ffc9a7146100d457806306fdde0314610104578063081812fc14610122578063095ea7b31461015257806323b872dd1461016e57806342842e0e1461018a575b600080fd5b6100ee60048036038101906100e99190611743565b6102bc565b6040516100fb9190611a60565b60405180910390f35b61010c61039e565b6040516101199190611a7b565b60405180910390f35b61013c6004803603810190610137919061179d565b610430565b60405161014991906119f9565b60405180910390f35b61016c60048036038101906101679190611703565b610476565b005b610188600480360381019061018391906115ed565b61058e565b005b6101a4600480360381019061019f91906115ed565b6105ee565b005b6101c060048036038101906101bb919061179d565b61060e565b6040516101cd91906119f9565b60405180910390f35b6101f060048036038101906101eb9190611580565b610695565b6040516101fd9190611bbd565b60405180910390f35b61020e61074d565b60405161021b9190611a7b565b60405180910390f35b61023e600480360381019061023991906116c3565b6107df565b005b61025a60048036038101906102559190611640565b6107f5565b005b6102766004803603810190610271919061179d565b610857565b6040516102839190611a7b565b60405180910390f35b6102a660048036038101906102a191906115ad565b6108bf565b6040516102b39190611a60565b60405180910390f35b60007f80ac58cd000000000000000000000000000000000000000000000000000000007bffffffffffffffffffffffffffffffffffffffffffffffffffffffff1916827bffffffffffffffffffffffffffffffffffffffffffffffffffffffff1916148061038757507f5b5e139f000000000000000000000000000000000000000000000000000000007bffffffffffffffffffffffffffffffffffffffffffffffffffffffff1916827bffffffffffffffffffffffffffffffffffffffffffffffffffffffff1916145b80610397575061039682610953565b5b9050919050565b6060600080546103ad90611d27565b80601f01602080910402602001604051908101604052809291908181526020018280546103d990611d27565b80156104265780601f106103fb57610100808354040283529160200191610426565b820191906000526020600020905b81548152906001019060200180831161040957829003601f168201915b5050505050905090565b600061043b826109bd565b6004600083815260200190815260200160002060009054906101000a900473ffffffffffffffffffffffffffffffffffffffff169050919050565b60006104818261060e565b90508073ffffffffffffffffffffffffffffffffffffffff168373ffffffffffffffffffffffffffffffffffffffff1614156104f2576040517f08c379a00000000000000000000000000000000000000000000000000000000081526004016104e990611b7d565b60405180910390fd5b8073ffffffffffffffffffffffffffffffffffffffff16610511610a08565b73ffffffffffffffffffffffffffffffffffffffff161480610540575061053f8161053a610a08565b6108bf565b5b61057f576040517f08c379a000000000000000000000000000000000000000000000000000000000815260040161057690611b9d565b60405180910390fd5b6105898383610a10565b505050565b61059f610599610a08565b82610ac9565b6105de576040517f08c379a00000000000000000000000000000000000000000000000000000000081526004016105d590611a9d565b60405180910390fd5b6105e9838383610b5e565b505050565b610609838383604051806020016040528060008152506107f5565b505050565b60008061061a83610e58565b9050600073ffffffffffffffffffffffffffffffffffffffff168173ffffffffffffffffffffffffffffffffffffffff16141561068c576040517f08c379a000000000000000000000000000000000000000000000000000000000815260040161068390611b5d565b60405180910390fd5b80915050919050565b60008073ffffffffffffffffffffffffffffffffffffffff168273ffffffffffffffffffffffffffffffffffffffff161415610706576040517f08c379a00000000000000000000000000000000000000000000000000000000081526004016106fd90611b3d565b60405180910390fd5b600360008373ffffffffffffffffffffffffffffffffffffffff1673ffffffffffffffffffffffffffffffffffffffff168152602001908152602001600020549050919050565b60606001805461075c90611d27565b80601f016020809104026020016040519081016040528092919081815260200182805461078890611d27565b80156107d55780601f106107aa576101008083540402835291602001916107d5565b820191906000526020600020905b8154815290600101906020018083116107b857829003601f168201915b5050505050905090565b6107f16107ea610a08565b8383610e95565b5050565b610806610800610a08565b83610ac9565b610845576040517f08c379a000000000000000000000000000000000000000000000000000000000815260040161083c90611a9d565b60405180910390fd5b61085184848484611002565b50505050565b6060610862826109bd565b600061086c61105e565b9050600081511161088c57604051806020016040528060008152506108b7565b8061089684611075565b6040516020016108a79291906119d5565b6040516020818303038152906040525b915050919050565b6000600560008473ffffffffffffffffffffffffffffffffffffffff1673ffffffffffffffffffffffffffffffffffffffff16815260200190815260200160002060008373ffffffffffffffffffffffffffffffffffffffff1673ffffffffffffffffffffffffffffffffffffffff16815260200190815260200160002060009054906101000a900460ff16905092915050565b60007f01ffc9a7000000000000000000000000000000000000000000000000000000007bffffffffffffffffffffffffffffffffffffffffffffffffffffffff1916827bffffffffffffffffffffffffffffffffffffffffffffffffffffffff1916149050919050565b6109c68161114d565b610a05576040517f08c379a00000000000000000000000000000000000000000000000000000000081526004016109fc90611b5d565b60405180910390fd5b50565b600033905090565b816004600083815260200190815260200160002060006101000a81548173ffffffffffffffffffffffffffffffffffffffff021916908373ffffffffffffffffffffffffffffffffffffffff160217905550808273ffffffffffffffffffffffffffffffffffffffff16610a838361060e565b73ffffffffffffffffffffffffffffffffffffffff167f8c5be1e5ebec7d5bd14f71427d1e84f3dd0314c0f7b2291e5b200ac8c7c3b92560405160405180910390a45050565b600080610ad58361060e565b90508073ffffffffffffffffffffffffffffffffffffffff168473ffffffffffffffffffffffffffffffffffffffff161480610b175750610b1681856108bf565b5b80610b5557508373ffffffffffffffffffffffffffffffffffffffff16610b3d84610430565b73ffffffffffffffffffffffffffffffffffffffff16145b91505092915050565b8273ffffffffffffffffffffffffffffffffffffffff16610b7e8261060e565b73ffffffffffffffffffffffffffffffffffffffff1614610bd4576040517f08c379a0000000000000000000000000000000000000000000000000000000008152600401610bcb90611add565b60405180910390fd5b600073ffffffffffffffffffffffffffffffffffffffff168273ffffffffffffffffffffffffffffffffffffffff161415610c44576040517f08c379a0000000000000000000000000000000000000000000000000000000008152600401610c3b90611afd565b60405180910390fd5b610c51838383600161118e565b8273ffffffffffffffffffffffffffffffffffffffff16610c718261060e565b73ffffffffffffffffffffffffffffffffffffffff1614610cc7576040517f08c379a0000000000000000000000000000000000000000000000000000000008152600401610cbe90611add565b60405180910390fd5b6004600082815260200190815260200160002060006101000a81549073ffffffffffffffffffffffffffffffffffffffff02191690556001600360008573ffffffffffffffffffffffffffffffffffffffff1673ffffffffffffffffffffffffffffffffffffffff168152602001908152602001600020600082825403925050819055506001600360008473ffffffffffffffffffffffffffffffffffffffff1673ffffffffffffffffffffffffffffffffffffffff16815260200190815260200160002060008282540192505081905550816002600083815260200190815260200160002060006101000a81548173ffffffffffffffffffffffffffffffffffffffff021916908373ffffffffffffffffffffffffffffffffffffffff160217905550808273ffffffffffffffffffffffffffffffffffffffff168473ffffffffffffffffffffffffffffffffffffffff167fddf252ad1be2c89b69c2b068fc378daa952ba7f163c4a11628f55a4df523b3ef60405160405180910390a4610e538383836001611194565b505050565b60006002600083815260200190815260200160002060009054906101000a900473ffffffffffffffffffffffffffffffffffffffff169050919050565b8173ffffffffffffffffffffffffffffffffffffffff168373ffffffffffffffffffffffffffffffffffffffff161415610f04576040517f08c379a0000000000000000000000000000000000000000000000000000000008152600401610efb90611b1d565b60405180910390fd5b80600560008573ffffffffffffffffffffffffffffffffffffffff1673ffffffffffffffffffffffffffffffffffffffff16815260200190815260200160002060008473ffffffffffffffffffffffffffffffffffffffff1673ffffffffffffffffffffffffffffffffffffffff16815260200190815260200160002060006101000a81548160ff0219169083151502179055508173ffffffffffffffffffffffffffffffffffffffff168373ffffffffffffffffffffffffffffffffffffffff167f17307eab39ab6107e8899845ad3d59bd9653f200f220920489ca2b5937696c3183604051610ff59190611a60565b60405180910390a3505050565b61100d848484610b5e565b6110198484848461119a565b611058576040517f08c379a000000000000000000000000000000000000000000000000000000000815260040161104f90611abd565b60405180910390fd5b50505050565b606060405180602001604052806000815250905090565b60606000600161108484611331565b01905060008167ffffffffffffffff8111156110a3576110a2611de8565b5b6040519080825280601f01601f1916602001820160405280156110d55781602001600182028036833780820191505090505b509050600082602001820190505b600115611142578080600190039150507f3031323334353637383961626364656600000000000000000000000000000000600a86061a8153600a858161112c5761112b611d8a565b5b049450600085141561113d57611142565b6110e3565b819350505050919050565b60008073ffffffffffffffffffffffffffffffffffffffff1661116f83610e58565b73ffffffffffffffffffffffffffffffffffffffff1614159050919050565b50505050565b50505050565b60006111bb8473ffffffffffffffffffffffffffffffffffffffff16611484565b15611324578373ffffffffffffffffffffffffffffffffffffffff1663150b7a026111e4610a08565b8786866040518563ffffffff1660e01b81526004016112069493929190611a14565b602060405180830381600087803b15801561122057600080fd5b505af192505050801561125157506040513d601f19601f8201168201806040525081019061124e9190611770565b60015b6112d4573d8060008114611281576040519150601f19603f3d011682016040523d82523d6000602084013e611286565b606091505b506000815114156112cc576040517f08c379a00000000000000000000000000000000000000000000000000000000081526004016112c390611abd565b60405180910390fd5b805181602001fd5b63150b7a0260e01b7bffffffffffffffffffffffffffffffffffffffffffffffffffffffff1916817bffffffffffffffffffffffffffffffffffffffffffffffffffffffff191614915050611329565b600190505b949350505050565b600080600090507a184f03e93ff9f4daa797ed6e38ed64bf6a1f010000000000000000831061138f577a184f03e93ff9f4daa797ed6e38ed64bf6a1f010000000000000000838161138557611384611d8a565b5b0492506040810190505b6d04ee2d6d415b85acef810000000083106113cc576d04ee2d6d415b85acef810000000083816113c2576113c1611d8a565b5b0492506020810190505b662386f26fc1000083106113fb57662386f26fc1000083816113f1576113f0611d8a565b5b0492506010810190505b6305f5e1008310611424576305f5e100838161141a57611419611d8a565b5b0492506008810190505b612710831061144957612710838161143f5761143e611d8a565b5b0492506004810190505b6064831061146c576064838161146257611461611d8a565b5b0492506002810190505b600a831061147b576001810190505b80915050919050565b6000808273ffffffffffffffffffffffffffffffffffffffff163b119050919050565b60006114ba6114b584611bfd565b611bd8565b9050828152602081018484840111156114d6576114d5611e1c565b5b6114e1848285611ce5565b509392505050565b6000813590506114f8816120b7565b92915050565b60008135905061150d816120ce565b92915050565b600081359050611522816120e5565b92915050565b600081519050611537816120e5565b92915050565b600082601f83011261155257611551611e17565b5b81356115628482602086016114a7565b91505092915050565b60008135905061157a816120fc565b92915050565b60006020828403121561159657611595611e26565b5b60006115a4848285016114e9565b91505092915050565b600080604083850312156115c4576115c3611e26565b5b60006115d2858286016114e9565b92505060206115e3858286016114e9565b9150509250929050565b60008060006060848603121561160657611605611e26565b5b6000611614868287016114e9565b9350506020611625868287016114e9565b92505060406116368682870161156b565b9150509250925092565b6000806000806080858703121561165a57611659611e26565b5b6000611668878288016114e9565b9450506020611679878288016114e9565b935050604061168a8782880161156b565b925050606085013567ffffffffffffffff8111156116ab576116aa611e21565b5b6116b78782880161153d565b91505092959194509250565b600080604083850312156116da576116d9611e26565b5b60006116e8858286016114e9565b92505060206116f9858286016114fe565b9150509250929050565b6000806040838503121561171a57611719611e26565b5b6000611728858286016114e9565b92505060206117398582860161156b565b9150509250929050565b60006020828403121561175957611758611e26565b5b600061176784828501611513565b91505092915050565b60006020828403121561178657611785611e26565b5b600061179484828501611528565b91505092915050565b6000602082840312156117b3576117b2611e26565b5b60006117c18482850161156b565b91505092915050565b6117d381611c71565b82525050565b6117e281611c83565b82525050565b60006117f382611c2e565b6117fd8185611c44565b935061180d818560208601611cf4565b61181681611e2b565b840191505092915050565b600061182c82611c39565b6118368185611c55565b9350611846818560208601611cf4565b61184f81611e2b565b840191505092915050565b600061186582611c39565b61186f8185611c66565b935061187f818560208601611cf4565b80840191505092915050565b6000611898602d83611c55565b91506118a382611e3c565b604082019050919050565b60006118bb603283611c55565b91506118c682611e8b565b604082019050919050565b60006118de602583611c55565b91506118e982611eda565b604082019050919050565b6000611901602483611c55565b915061190c82611f29565b604082019050919050565b6000611924601983611c55565b915061192f82611f78565b602082019050919050565b6000611947602983611c55565b915061195282611fa1565b604082019050919050565b600061196a601883611c55565b915061197582611ff0565b602082019050919050565b600061198d602183611c55565b915061199882612019565b604082019050919050565b60006119b0603d83611c55565b91506119bb82612068565b604082019050919050565b6119cf81611cdb565b82525050565b60006119e1828561185a565b91506119ed828461185a565b91508190509392505050565b6000602082019050611a0e60008301846117ca565b92915050565b6000608082019050611a2960008301876117ca565b611a3660208301866117ca565b611a4360408301856119c6565b8181036060830152611a5581846117e8565b905095945050505050565b6000602082019050611a7560008301846117d9565b92915050565b60006020820190508181036000830152611a958184611821565b905092915050565b60006020820190508181036000830152611ab68161188b565b9050919050565b60006020820190508181036000830152611ad6816118ae565b9050919050565b60006020820190508181036000830152611af6816118d1565b9050919050565b60006020820190508181036000830152611b16816118f4565b9050919050565b60006020820190508181036000830152611b3681611917565b9050919050565b60006020820190508181036000830152611b568161193a565b9050919050565b60006020820190508181036000830152611b768161195d565b9050919050565b60006020820190508181036000830152611b9681611980565b9050919050565b60006020820190508181036000830152611bb6816119a3565b9050919050565b6000602082019050611bd260008301846119c6565b92915050565b6000611be2611bf3565b9050611bee8282611d59565b919050565b6000604051905090565b600067ffffffffffffffff821115611c1857611c17611de8565b5b611c2182611e2b565b9050602081019050919050565b600081519050919050565b600081519050919050565b600082825260208201905092915050565b600082825260208201905092915050565b600081905092915050565b6000611c7c82611cbb565b9050919050565b60008115159050919050565b60007fffffffff0000000000000000000000000000000000000000000000000000000082169050919050565b600073ffffffffffffffffffffffffffffffffffffffff82169050919050565b6000819050919050565b82818337600083830152505050565b60005b83811015611d12578082015181840152602081019050611cf7565b83811115611d21576000848401525b50505050565b60006002820490506001821680611d3f57607f821691505b60208210811415611d5357611d52611db9565b5b50919050565b611d6282611e2b565b810181811067ffffffffffffffff82111715611d8157611d80611de8565b5b80604052505050565b7f4e487b7100000000000000000000000000000000000000000000000000000000600052601260045260246000fd5b7f4e487b7100000000000000000000000000000000000000000000000000000000600052602260045260246000fd5b7f4e487b7100000000000000000000000000000000000000000000000000000000600052604160045260246000fd5b600080fd5b600080fd5b600080fd5b600080fd5b6000601f19601f8301169050919050565b7f4552433732313a2063616c6c6572206973206e6f7420746f6b656e206f776e6560008201527f72206f7220617070726f76656400000000000000000000000000000000000000602082015250565b7f4552433732313a207472616e7366657220746f206e6f6e20455243373231526560008201527f63656976657220696d706c656d656e7465720000000000000000000000000000602082015250565b7f4552433732313a207472616e736665722066726f6d20696e636f72726563742060008201527f6f776e6572000000000000000000000000000000000000000000000000000000602082015250565b7f4552433732313a207472616e7366657220746f20746865207a65726f2061646460008201527f7265737300000000000000000000000000000000000000000000000000000000602082015250565b7f4552433732313a20617070726f766520746f2063616c6c657200000000000000600082015250565b7f4552433732313a2061646472657373207a65726f206973206e6f74206120766160008201527f6c6964206f776e65720000000000000000000000000000000000000000000000602082015250565b7f4552433732313a20696e76616c696420746f6b656e2049440000000000000000600082015250565b7f4552433732313a20617070726f76616c20746f2063757272656e74206f776e6560008201527f7200000000000000000000000000000000000000000000000000000000000000602082015250565b7f4552433732313a20617070726f76652063616c6c6572206973206e6f7420746f60008201527f6b656e206f776e6572206f7220617070726f76656420666f7220616c6c000000602082015250565b6120c081611c71565b81146120cb57600080fd5b50565b6120d781611c83565b81146120e257600080fd5b50565b6120ee81611c8f565b81146120f957600080fd5b50565b61210581611cdb565b811461211057600080fd5b5056fea264697066735822122065cab3474390ed3d823750865c579b4cb1cf7c3c1124edca0c908cc03933755264736f6c63430008070033",
  "linkReferences": {},
  "deployedLinkReferences": {}
}